:100000000C94EC000C9414010C9414010C94140145
:100010000C9414010C9414010C9414010C9414010C
:100020000C9414010C9414010C9414010C941401FC
:100030000C9414010C9414010C9414010C941401EC
:100040000C94CE040C9414010C949C040C9476042F
:100050000C9414010C9414010C9414010C941401CC
:100060000C9418050C941401084AD73B3BCE016E42
:1000700084BCBFFDC12F3D6C74319ABD56833DDAFF
:100080003D00C77F11BED9E4BB4C3E916BAAAABE0E
:10009000000000803F0000407A10F35A00A0724E2A
:1000A00018090010A5D4E80000E87648170000E41D
:1000B0000B54020000CA9A3B000000E1F505000065
:1000C00080969800000040420F000000A0860100CA
:1000D0000000102700000000E8030000000064009A
:1000E000000000000A000000000001000000000005
:1000F0002C76D888DC674F0823DFC1DFAE59E1B129
:10010000B796E5E3E453C63AE651997696E8E6C237
:100110008426EB898C9B62ED407C6FFCEFBC9C9F3E
:1001200040F2BAA56FA5F490055A2AF75C936B6C60
:10013000F9676DC11BFCE0E40D47FEF520E6B50054
:10014000D0ED902E0300943577050080841E0800C2
:1001500000204E0A000000C80C333333330F986E72
:1001600012831141EF8D2114893BE65516CFFEE62F
:10017000DB18D1844B381BF77C1D901DA4BBE424F5
:10018000203284725E228100C9F124ECA1E53D2772
:1001900000000000250028002B00040404040404CF
:1001A0000404020202020202030303030303010226
:1001B00004081020408001020408102001020408F5
:1001C00010200000000800020100000304070000E6
:1001D000000000000000460611241FBECFEFD8E04B
:1001E000DEBFCDBF22E0A2E3B1E001C01D92A63C7C
:1001F000B207E1F711E0A0E0B1E0E2E3F4E202C00F
:1002000005900D92A233B107D9F710E0CCEED0E003
:1002100004C02197FE010E940510CB3ED107C9F70B
:100220000E9485060C9417120C9400009091EE0128
:100230009111FCCF91E09093EE014093ED012FEFEF
:100240002093EC011092EB01260F2093EA0190938A
:10025000E9019091E901880F892B8093E901809150
:10026000E801813061F41092E8018091E901809306
:10027000BB008091BC0083FDF8CF85EC01C085EE0A
:100280008093BC008091EE018130E1F38091EB011D
:10029000861710F46091EB01A8ECB1E028EA31E098
:1002A000F9018E2F821B861718F48D918193F9CF57
:1002B000862F0895382F2091A7019091A601213211
:1002C00008F049C08091EE018111FCCF42E04093DB
:1002D000EE013093ED013FEF3093EC011092EB0112
:1002E0002093EA01A6E8B1E048EC51E0FA013E2F84
:1002F000341B321718F43D913193F9CF1092E90174
:100300002091E901990F922B9093E9019091E801D6
:10031000913061F41092E8019091E9019093BB0053
:100320009091BC0093FDF8CF95EC01C095EE9093B1
:10033000BC009091EE019230E1F39091EC019F3F6F
:1003400079F08091EC01803241F08091EC018033B2
:1003500031F084E005C081E003C082E001C083E0A9
:10036000109285011092A70110928401089590E0E7
:10037000FC01EE53FE4F2491FC01E255FE4F3491F7
:10038000FC01E656FE4FE491EE23B1F1222339F150
:10039000233091F038F42130A9F0223001F584B5F2
:1003A0008F7D12C0273091F02830A1F02430B9F4AD
:1003B000809180008F7D03C0809180008F77809333
:1003C00080000DC084B58F7784BD09C08091B000D6
:1003D0008F7703C08091B0008F7D8093B000F0E0F4
:1003E000EE0FFF1FE057FE4FA591B4918FB7F89421
:1003F000EC913E2B3C938FBF0895CF92DF92EF920A
:10040000FF920F931F93CF93DF936C017A018B01BF
:10041000C0E0D0E0CE15DF0589F0D8016D918D01E7
:10042000D601ED91FC910190F081E02DC601099576
:10043000892B11F47E0102C02196ECCFC701DF9118
:10044000CF911F910F91FF90EF90DF90CF90089583
:10045000FC01538D448D252F30E0842F90E0821BCA
:10046000930B541710F0CF96089501970895FC014F
:10047000918D828D981761F0828DDF01A80FB11DDB
:100480005D968C91928D9F5F9F73928F90E00895FF
:100490008FEF9FEF0895FC01918D828D981731F0B9
:1004A000828DE80FF11D858D90E008958FEF9FEF0D
:1004B0000895FC01918D228D892F90E0805C9F4FE3
:1004C000821B91098F73992708958FEE91E00E9406
:1004D000590221E0892B09F420E0822F0895FC01C4
:1004E000848DDF01A80FB11DA35ABF4F2C91848DBD
:1004F00090E001968F739927848FA689B7892C93F2
:10050000A089B1898C9180648C93938D848D98138C
:1005100006C00288F389E02D80818F7D8083089555
:10052000EF92FF920F931F93CF93DF93EC0181E043
:10053000888F9B8D8C8D981305C0E889F9898081FF
:1005400085FD24C0F62E0B8D10E00F5F1F4F0F733B
:100550001127E02E8C8DE8120CC00FB607FCFACFE5
:10056000E889F989808185FFF5CFCE010E946F026D
:10057000F1CF8B8DFE01E80FF11DE35AFF4FF082A2
:100580000B8FEA89FB898081806207C0EE89FF8931
:100590006083E889F98980818064808381E090E0CC
:1005A000DF91CF911F910F91FF90EF900895CF931E
:1005B000DF93EC01888D8823C9F0EA89FB8980816B
:1005C00085FD05C0A889B9898C9186FD0FC00FB63D
:1005D00007FCF5CF808185FFF2CFA889B9898C917E
:1005E00085FFEDCFCE010E946F02E7CFDF91CF9163
:1005F000089580E090E0892B29F00E946502811126
:100600000C94000008953FB7F89480917E0190917A
:100610007F01A0918001B091810126B5A89B05C002
:100620002F3F19F00196A11DB11D3FBFBA2FA92F71
:10063000982F8827820F911DA11DB11DBC01CD01EE
:1006400042E0660F771F881F991F4A95D1F70895DA
:1006500085ED8093BC008091BC0084FDFCCF10929E
:10066000EE01089540915401262F30E0240F311DF2
:1006700021323105DCF42091EE012430C9F4FC0173
:1006800080E090E0861758F4309154012191DC010C
:10069000AE5CBE4FA30FB11D2C930196F3CF80919A
:1006A0005401680F6093540180E0089581E008953B
:1006B00082E008950895E091830180918201E81716
:1006C00030F4F0E0E855FE4F808190E008958FEF20
:1006D0009FEF08959091830180918201981750F4C3
:1006E000E92FF0E0E855FE4F208130E09F5F9093C6
:1006F000830102C02FEF3FEFC9010895809182016D
:1007000090E020918301821B91090895CF92DF929E
:10071000EF92FF920F931F93CF93DF937C01262FCD
:10072000972F8A0180918401882391F0C62FD72FBB
:100730006E01C40ED51ECC15DD0571F06991D7018F
:10074000ED91FC910190F081E02DC7010995F3CF67
:10075000642F822F0E943203C801DF91CF911F9135
:100760000F91FF90EF90DF90CF900895CF93DF939C
:100770001F92CDB7DEB76983209184012223D1F087
:100780002091A701203240F021E030E0FC013383CA
:10079000228380E090E015C080918501E82FF0E091
:1007A000EA57FE4F998190838F5F809385018093F4
:1007B000A70105C061E0CE0101960E94320381E0ED
:1007C00090E00F90DF91CF910895682F8CE892E030
:1007D0000C94B603089580E090E008950F931F9362
:1007E000CF93DF93EC0188819981009729F02A81CA
:1007F0003B812617370788F48B016F5F7F4F0E947C
:100800003811009761F0998388831B830A832C81B8
:100810003D81232B11F4FC01108281E001C080E0B6
:10082000DF91CF911F910F910895CF93DF93EC014A
:1008300088819981009711F00E94A0101982188276
:100840001D821C821B821A82DF91CF910895CF9264
:10085000DF92EF92FF920F931F93CF93DF93CDB769
:10086000DEB7A1970FB6F894DEBF0FBECDBF7C01F7
:10087000CB01BA01F7011182108213821282158214
:10088000148242E0420F8E010F5F1F4F0E94C90A7F
:100890006C01009771F0FC0101900020E9F731979D
:1008A0008F01081B190BB801C7010E94EE038111CB
:1008B00004C0C7010E94150408C0F7011583048312
:1008C000B601808191810E941012A1960FB6F89412
:1008D000DEBF0FBECDBFDF91CF911F910F91FF9073
:1008E000EF90DF90CF9008950E9402121F920F9216
:1008F0000FB60F9211242F933F934F935F936F93F3
:100900007F938F939F93AF93BF93EF93FF938FEE5C
:1009100091E00E946F02FF91EF91BF91AF919F9183
:100920008F917F916F915F914F913F912F910F9098
:100930000FBE0F901F9018951F920F920FB60F9237
:1009400011242F938F939F93EF93FF93E091FF01D7
:10095000F09100028081E0910502F091060282FD93
:1009600012C09081809108028F5F8F7320910902DD
:10097000821751F0E0910802F0E0E151FE4F958FAF
:100980008093080201C08081FF91EF919F918F9128
:100990002F910F900FBE0F901F9018951F920F92DE
:1009A0000FB60F9211242F933F938F939F93AF9382
:1009B000BF9380917A0190917B01A0917C01B091CD
:1009C0007D013091790123E0230F2D3720F401962A
:1009D000A11DB11D05C026E8230F0296A11DB11D62
:1009E0002093790180937A0190937B01A0937C01FD
:1009F000B0937D0180917E0190917F01A091800153
:100A0000B09181010196A11DB11D80937E0190934B
:100A10007F01A0938001B0938101BF91AF919F911D
:100A20008F913F912F910F900FBE0F901F901895AF
:100A30001F920F920FB60F9211242F933F934F9353
:100A40005F936F937F938F939F93AF93BF93EF9336
:100A5000FF938091B900887F803609F49CC068F5C7
:100A6000883209F45BC090F4803109F454C038F442
:100A7000882309F4F6C0883009F44DC0F6C08831E7
:100A800009F44CC0803209F45DC0EFC0803409F431
:100A900068C048F4803309F455C0883309F0E5C0D4
:100AA0008093EC01D8C0803509F44FC0883509F433
:100AB0005DC0883409F0D9C0D6C0883909F4C7C0F0
:100AC000A8F4883709F467C038F4883609F463C09D
:100AD000803709F460C0C9C0883809F4B8C08039CB
:100AE00009F45FC0803809F0C0C05BC0803B09F4E6
:100AF00086C038F4803A09F466C0883A09F47FC0A9
:100B0000B4C0803C09F4A7C0883C09F4A4C0883B69
:100B100009F48AC0AAC08091E90110C09091EB014C
:100B20008091EA01981770F5E091EB0181E08E0F5A
:100B30008093EB01F0E0E853FE4F80818093BB008F
:100B400085EC86C08093EC018EC0E091EB0181E0E2
:100B50008E0F8093EB018091BB00F0E0E853FE4FD5
:100B600080839091EB018091EA016EC0E091EB01EE
:100B700081E08E0F8093EB018091BB00F0E0E853A1
:100B8000FE4F80838091ED0181116DC081E08093E3
:100B9000E80184EA61C083E08093EE01109278015D
:100BA000CFCF80917801803208F051C0E091780178
:100BB00081E08E0F809378018091BB00F0E0E85ACD
:100BC000FE4F8083BDCF85EC8093BC001092EE0178
:100BD00080917801803230F4E0917801F0E0E85AB9
:100BE000FE4F10826091780170E0E0915601F09123
:100BF000570188E591E009951092780136C084E0AC
:100C00008093EE011092550110925401E09152012F
:100C1000F0915301099580915401811105C081E043
:100C20008093540110923201E091550181E08E0FC2
:100C300080935501F0E0EE5CFE4F80818093BB0015
:100C40009091550180915401981708F479CF85E867
:100C50008093BC000AC085EC8093BC001092EE012A
:100C600004C01092EC010E942803FF91EF91BF9104
:100C7000AF919F918F917F916F915F914F913F9134
:100C80002F910F900FBE0F901F901895EFEEF1E08F
:100C90001382128288EE93E0A0E0B0E08483958313
:100CA000A683B7832AE031E03183208325EC30E04E
:100CB0003587248724EC30E03787268720EC30E026
:100CC000318B208B21EC30E0338B228B22EC30E017
:100CD000358B248B26EC30E0378B268B118E128ED1
:100CE000138E148EECE8F2E01382128284839583D3
:100CF000A683B7838CE191E09183808388E690E0BE
:100D000090939902809398020895CF93DF93CDB783
:100D1000DEB7AC970FB6F894DEBF0FBECDBF7894A8
:100D200084B5826084BD84B5816084BD85B58260F0
:100D300085BD85B5816085BD80916E0081608093A1
:100D40006E0010928100809181008260809381000A
:100D5000809181008160809381008091800081601A
:100D6000809380008091B10084608093B100809175
:100D7000B00081608093B00080917A00846080939D
:100D80007A0080917A00826080937A0080917A0064
:100D9000816080937A0080917A00806880937A00E5
:100DA0001092C1001092830110928201109285016D
:100DB0001092A7011092EE0111E01093ED01109234
:100DC000E80182E10E94B70183E10E94B7018091AE
:100DD000B9008E7F8093B9008091B9008D7F809398
:100DE000B90088E48093B80085E48093BC008CE06F
:100DF0008093B80080919802109384018093A6019B
:100E0000109285011092A7018BE690E00E94E50305
:100E100080E090E00E94E50381E00E945A010E9478
:100E200003034B015C0184E6C82ED12CE12CF12C8C
:100E30000E940303DC01CB0188199909AA09BB09A7
:100E4000883E9340A105B10558F021E0C21AD108AF
:100E5000E108F10838EE830E33E0931EA11CB11CAB
:100E6000C114D104E104F10419F78091980291E0D2
:100E7000909384018093A601109285011092A7019E
:100E80008BE390E00E94E50380E00E945A0141E07C
:100E90006EE0809198020E94160110928301809367
:100EA00082018CE892E00E946A03182F8CE892E09D
:100EB0000E946A0360E070E0712F862B972BBC01C3
:100EC000990F880B990B0E94510D60939A027093B1
:100ED0009B0280939C0290939D028CE892E00E947A
:100EE0006A03182F8CE892E00E946A0360E070E0C9
:100EF000712F862B972BBC01990F880B990B0E94A1
:100F0000510D60939E0270939F028093A002909374
:100F1000A1028CE892E00E946A03182F8CE892E00C
:100F20000E946A0360E070E0712F862B972BBC0152
:100F3000990F880B990B0E94510D6093A202709338
:100F4000A3028093A4029093A5028CE892E00E94F1
:100F50006A03182F8CE892E00E946A0360E070E058
:100F6000712F862B972BBC01990F880B990B0E9430
:100F7000510D6093A6027093A7028093A8029093EC
:100F8000A9028CE892E00E946A03182F8CE892E094
:100F90000E946A0360E070E0712F862B972BBC01E2
:100FA000990F880B990B0E94510D6093AA027093C0
:100FB000AB028093AC029093AD028CE892E00E9469
:100FC0006A03182F8CE892E00E946A0360E070E0E8
:100FD000712F862B972BBC01990F880B990B0E94C0
:100FE000510D6093AE027093AF028093B002909364
:100FF000B1028CE892E00E946A03182F8CE892E01C
:101000000E946A0360E070E0712F862B972BBC0171
:10101000990F880B990B0E94510D6093B202709347
:10102000B3028093B4029093B5020E9403036093CD
:10103000B6027093B7028093B8029093B902E09120
:10104000FF01F091000282E08083E091FB01F091CA
:10105000FC011082E091FD01F091FE018FEC808394
:1010600010920702E0910302F091040286E080836F
:10107000E0910102F0910202808180618083E09121
:101080000102F0910202808188608083E091010278
:10109000F0910202808180688083E0910102F091EA
:1010A000020280818F7D808311E0809198021093ED
:1010B00084018093A601109285011092A7018BE311
:1010C00090E00E94E50380E00E945A0141E06EE05A
:1010D000809198020E9416011092830180938201F0
:1010E0008CE892E00E946A03F82E8CE892E00E945D
:1010F0006A03FA8E198E298D3A8D822B932BBC01AF
:10110000990F880B990B0E94510D60939A0270936E
:101110009B0280939C0290939D028CE892E00E9437
:101120006A03F82E8CE892E00E946A03FC8E1B8E04
:101130002B8D3C8D822B932BBC01990F880B990B27
:101140000E94510D60939E0270939F028093A002B3
:101150009093A1028CE892E00E946A03F82E8CE83A
:1011600092E00E946A03FE8E1D8E2D8D3E8D822B95
:10117000932BBC01990F880B990B0E94510D609322
:10118000A2027093A3028093A4029093A5028CE81C
:1011900092E00E946A03F82E8CE892E00E946A03B3
:1011A000F8A21F8E2F8D38A1822B932BBC01990F93
:1011B000880B990B0E94510D6093A6027093A702B1
:1011C0008093A8029093A9028CE892E00E946A039F
:1011D000F82E8CE892E00E946A03FAA219A229A1D3
:1011E0003AA1822B932BBC01990F880B990B0E947B
:1011F000510D6093AA027093AB028093AC0290935E
:10120000AD028CE892E00E946A03F82E8CE892E02E
:101210000E946A03FCA21BA22BA13CA1822B932B50
:10122000BC01990F880B990B0E94510D6093AE027F
:101230007093AF028093B0029093B1028CE892E079
:101240000E946A03F82E8CE892E00E946A033F2C09
:10125000212C82299329BC01990F880B990B0E949C
:10126000510D6093B2027093B3028093B4029093D5
:10127000B5020E940303C090B602D090B702E0907E
:10128000B802F090B9026C197D098E099F090E947D
:101290004F0D20E034E244E759E40E94600F4B0117
:1012A0005C010E9403036093B6027093B7028093BF
:1012B000B8029093B902C090A202D090A302E0902D
:1012C000A402F090A50260919E0270919F0280910D
:1012D000A0029091A102A70196010E94010F2B018B
:1012E0003C0180919A0290919B02A0919C02B09146
:1012F0009D02BC01CD019058A70196010E94010FEB
:101300006DA37EA38FA398A720E030E043E053E4D1
:101310006091AE027091AF028091B0029091B102E3
:101320000E94600F6B017C0120E030E043E053E459
:101330006091AA027091AB028091AC029091AD02D3
:101340000E94600FA50194010E948C0D2091BA02A9
:101350003091BB024091BC025091BD020E94820EAE
:1013600024EA30E74DE75FE30E948C0D69A77AA776
:101370008BA79CA721EE3EE245E652E4C301B201F1
:101380000E948C0D2AE037ED43E25CE30E948C0D55
:101390009B01AC0169A57AA58BA59CA50E94820E34
:1013A0006093BA027093BB028093BC029093BD021B
:1013B000A5019401C701B6010E948C0D2091BE02C7
:1013C0003091BF024091C0025091C1020E94820E32
:1013D00024EA30E74DE75FE30E948C0D6B017C014E
:1013E00021EE3EE245E652E46DA17EA18FA198A5D3
:1013F0000E948C0D2AE037ED43E25CE30E948C0DE5
:101400009B01AC01C701B6010E94820EAB01BC0179
:101410004093BE025093BF026093C0027093C1021A
:1014200022E0CE010D960E9427044091BA0250910D
:10143000BB026091BC027091BD0222E0CE01019618
:101440000E94270418861F821A8619861C861B860E
:10145000E980FA80E114F104A9F0CD80DE80B601C4
:10146000CE0107960E94EE03811105C0CE010796BA
:101470000E94150407C0DC86CB86B7018F81988552
:101480000E941012EB84FC8433E0E30EF11CB701E0
:10149000CE0107960E94EE03882309F475C02F81C0
:1014A00038858B859C856AE271E0820F931F0E94CC
:1014B0001012FC86EB8689899A89CD84DE84EB84C0
:1014C000FC84C114D10409F45AC00097A9F0E80EB5
:1014D000F91EB701CE0107960E94EE03882309F496
:1014E0004EC02F8138858B859C85B601820F931F56
:1014F0000E941012FC86EB861C8A1B8A1E8A1D8A9B
:10150000188E1F8AEF80F884E114F104A9F0CB84CF
:10151000DC84B601CE0143960E94EE03811105C022
:10152000CE0143960E94150407C0D88ECF8AB7011A
:101530008B899C890E9410128F8198850E94A0102F
:1015400089819A810E94A0108D859E850E94A0109D
:101550004F89588D6B897C898FEE91E00E94FD0147
:1015600042E050E06EE271E08FEE91E00E94FD01FA
:101570008B899C890E94A0100E94F90296CDCE0111
:1015800007960E941504B8CFCE0107960E94150455
:1015900092CFEF920F931F93CF93DF93E80147FD14
:1015A00002C034E001C034E1E42F440FFF0BF7FF29
:1015B00003C0F195E195F109E32E022F2E2FAE0124
:1015C0000E94E90ACE01DF91CF911F910F91EF9018
:1015D00008954F925F926F927F929F92AF92BF92C7
:1015E000CF92DF92EF92FF920F931F93CF93DF93EF
:1015F000CDB7DEB729970FB6F894DEBF0FBECDBFCB
:101600006A01122FB02E2BE3201720F0FF24F39451
:10161000F00E02C0BCE3FB2E0F2D27E0AE014F5FA2
:101620005F4F0E94770CAC018981982F997091309F
:1016300031F0E1FC06C0E0FE06C090E205C09DE28C
:1016400003C09BE201C090E0EE2DE07183FF3CC03F
:10165000911102C083E001C084E0811718F4212FAA
:10166000281B01C020E0E1110BC0F601822F30E2FF
:10167000882319F031938150FBCFC20ED11C20E09A
:10168000992329F0D6019C93F60131966F01C6018A
:101690000396E2FE0AC03EE4D6013C9341E4119673
:1016A0004C93119712963C9306C03EE6F6013083A8
:1016B00041E641833283FC01322F40E2332309F4B7
:1016C00042C041933150FACF82FF44C0911102C011
:1016D00083E001C084E0811718F4212F281B01C08A
:1016E00020E0E1110BC0F601822F30E2882319F0CF
:1016F00031938150FBCFC20ED11C20E0992329F0F9
:10170000D6019C93F60131966F01C6010396E2FE65
:101710000BC039E4D6013C933EE411963C931197FB
:1017200036E412963C9307C039E6F60130833EE674
:10173000318336E63283FC01322F40E2332319F045
:1017400041933150FBCFFC01E20FF11D10828EEF6F
:101750009FEFB7C0F1E0911101C0F0E06F2F70E092
:101760001416150624F49A012F5F3F4F02C021E0A2
:1017700030E0260F371FBB2029F06B2D70E06F5F24
:101780007F4F02C060E070E0260F371F612F70E0CE
:10179000261737071CF4121B212F01C020E03E2D15
:1017A000387159F4D601322F60E2332319F06D936A
:1017B0003150FBCFC20ED11C20E0FF2331F0D60107
:1017C0009C93B6016F5F7F4F6B01E1110BC0F60177
:1017D000922F30E3992319F031939150FBCFC20E31
:1017E000D11C20E09F2D940F3A81782F7071A72E85
:1017F00084FF03C0313309F49150191624F4993051
:1018000018F098E001C091E0E42F852F57FF02C047
:10181000E0E080E06E2F782FE0E0F0E0AEE29A2E7C
:101820003A01691A71082A01461A570A0B2D10E06D
:101830001195019511096F3F8FEF780729F4D601B3
:101840009C92C60101966C014617570784F06616F4
:1018500077066CF47F01E40CF51CA1E0B0E0AC0F5E
:10186000BD1FEA0EFB1ED7011196BC9002C090E38B
:10187000B92E615071093196C60101967C0160173D
:10188000710724F0D601BC926C01D5CF641775079F
:1018900041F4363320F4353321F4A11002C081E342
:1018A000B82EF601B082F701822F90E2882319F05A
:1018B00091938150FBCFF701E20FF11D108280E080
:1018C00090E029960FB6F894DEBF0FBECDBFDF9132
:1018D000CF911F910F91FF90EF90DF90CF90BF902D
:1018E000AF909F907F906F905F904F9008952830B9
:1018F00008F027E03327DA01990F311D87FD916049
:1019000000966105710539F432602E5F3D9330E336
:101910002A95E1F708959F3F30F080387105610501
:1019200009F03C5F3C5F3D93913008F08068911D69
:10193000DF93CF931F930F93FF92EF92192F987F0E
:101940009695E92F96959695E90FFF27E051FF4F61
:1019500099273327EE24FF24A701E7010590089477
:10196000079428F4360FE71EF81E491F511D660F15
:10197000771F881F991F0694A1F70590079428F4F4
:10198000E70EF81E491F561FC11D770F881F991FAC
:10199000661F0694A1F70590079428F4F80E491FD6
:1019A000561FC71FD11D880F991F661F771F0694EA
:1019B000A1F70590079420F4490F561FC71FD81FA1
:1019C000990F661F771F881F0694A9F784911095B9
:1019D000177041F0D695C79557954795F794E794BA
:1019E0001A95C1F7E6E9F0E06894159015913591E4
:1019F0006591959105907FE27395E118F10A430B8B
:101A0000560BC90BD009C0F7E10CF11E431F561F3E
:101A1000C91FD01D7EF4703311F48A95E6CFE89487
:101A2000015030F0080F0AF40027021708F4202FA5
:101A30002395022F7A3328F079E37D932A95E9F7ED
:101A400010C07D932A9589F60694979567953795EA
:101A500017951794E118F10A430B560BC90BD009DF
:101A600098F023957E9173957A3308F070E37C9318
:101A70002013B8F77E9170617D9330F0839571E308
:101A80007D9370E32A95E1F71124EF90FF900F9179
:101A90001F91CF91DF91992787FD90950895E89444
:101AA00009C097FB3EF490958095709561957F4FA6
:101AB0008F4F9F4F9923A9F0F92F96E9BB27939554
:101AC000F695879577956795B795F111F8CFFAF464
:101AD000BB0F11F460FF1BC06F5F7F4F8F4F9F4F95
:101AE00016C0882311F096E911C0772321F09EE8F3
:101AF000872F762F05C0662371F096E8862F70E059
:101B000060E02AF09A95660F771F881FDAF7880F32
:101B10009695879597F908950E949F0D0C94100E45
:101B20000E94020E38F00E94090E20F0952311F059
:101B30000C94F90D0C94FF0D11240C94440E0E948A
:101B4000210E70F3959FC1F3950F50E0551F629FD2
:101B5000F001729FBB27F00DB11D639FAA27F00D06
:101B6000B11DAA1F649F6627B00DA11D661F829F2D
:101B70002227B00DA11D621F739FB00DA11D621F12
:101B8000839FA00D611D221F749F3327A00D611D2F
:101B9000231F849F600D211D822F762F6A2F112411
:101BA0009F5750409AF0F1F088234AF0EE0FFF1F44
:101BB000BB1F661F771F881F91505040A9F79E3F9B
:101BC000510580F00C94F90D0C94440E5F3FE4F342
:101BD000983ED4F3869577956795B795F795E795F1
:101BE0009F5FC1F7FE2B880F911D9695879597F9FA
:101BF000089597F99F6780E870E060E008959FEF8F
:101C000080EC089500240A94161617061806090693
:101C1000089500240A941216130614060506089562
:101C2000092E0394000C11F4882352F0BB0F40F4EA
:101C3000BF2B11F460FF04C06F5F7F4F8F4F9F4F2A
:101C4000089557FD9058440F551F59F05F3F71F0AC
:101C50004795880F97FB991F61F09F3F79F0879513
:101C60000895121613061406551FF2CF4695F1DF9C
:101C700008C0161617061806991FF1CF869571052C
:101C8000610508940895E894BB2766277727CB0160
:101C900097F908952F923F924F925F926F927F92A1
:101CA0008F929F92AF92BF92CF92DF92EF92FF926C
:101CB0000F931F93CF93DF93CDB7DEB7CA1BDB0B18
:101CC0000FB6F894DEBF0FBECDBF09942A883988BD
:101CD00048885F846E847D848C849B84AA84B984C4
:101CE000C884DF80EE80FD800C811B81AA81B981D0
:101CF000CE0FD11D0FB6F894DEBF0FBECDBFED01E4
:101D000008955058BB27AA270E94990E0C94100ED4
:101D10000E94020E38F00E94090E20F039F49F3F15
:101D200019F426F40C94FF0D0EF4E095E7FB0C94E7
:101D3000F90DE92F0E94210E58F3BA1762077307B5
:101D40008407950720F079F4A6F50C94430E0EF461
:101D5000E0950B2EBA2FA02D0B01B90190010C01BB
:101D6000CA01A0011124FF27591B99F0593F50F4D3
:101D7000503E68F11A16F040A22F232F342F44272B
:101D8000585FF3CF469537952795A795F040539523
:101D9000C9F77EF41F16BA0B620B730B840BBAF0F3
:101DA0009150A1F0FF0FBB1F661F771F881FC2F75E
:101DB0000EC0BA0F621F731F841F48F48795779572
:101DC0006795B795F7959E3F08F0B0CF9395880F2C
:101DD00008F09927EE0F9795879508950E94020EB7
:101DE00060F080E891E009F49EEF0E94090E28F06F
:101DF00040E851E071F45EEF0CC00C94FF0D0C94C0
:101E0000430EE92FE0780E94210E40F3092E052AA7
:101E1000B1F3261737074807590738F00E2E07F891
:101E2000E02569F0E025E0640AC0EF6307F800945C
:101E300007FADB01B9019D01DC01CA01AD01EF9395
:101E40000E94770F0E94100E0E94310F5F91552360
:101E500039F02BED3FE049E450FD49EC0C94820E43
:101E60000895DF93DD27B92FBF7740E85FE31616AB
:101E7000170648075B0718F4D92F0E94F90F9F93A4
:101E80008F937F936F930E940110E8E6F0E00E9429
:101E9000D20F0E94100E2F913F914F915F910E949F
:101EA0009F0DDD2351F09058A2EA2AED3FE049EC66
:101EB0005FE3D0785D270E94990EDF910C94100E9D
:101EC0000E94740F0C94100E0E94090E58F00E948C
:101ED000020E40F029F45F3F29F00C94F90D5111E6
:101EE0000C94440E0C94FF0D0E94210E68F399236C
:101EF000B1F3552391F3951B550BBB27AA27621706
:101F00007307840738F09F5F5F4F220F331F441F12
:101F1000AA1FA9F335D00E2E3AF0E0E832D0915046
:101F20005040E695001CCAF72BD0FE2F29D0660F33
:101F3000771F881FBB1F261737074807AB07B0E876
:101F400009F0BB0B802DBF01FF2793585F4F3AF07C
:101F50009E3F510578F00C94F90D0C94440E5F3FB0
:101F6000E4F3983ED4F3869577956795B795F79502
:101F70009F5FC9F7880F911D9695879597F90895EA
:101F8000E1E0660F771F881FBB1F62177307840786
:101F9000BA0720F0621B730B840BBA0BEE1F88F795
:101FA000E0950895DF93CF931F930F93FF92EF92E5
:101FB000DF927B018C01689406C0DA2EEF010E944B
:101FC0009F0DFE01E894A59125913591459155917C
:101FD000A6F3EF010E94990EFE019701A801DA9481
:101FE00069F7DF90EF90FF900F911F91CF91DF91F4
:101FF00008959B01AC0160E070E080E89FE30C94E1
:10200000600F9B01AC010C948C0DEE0FFF1F05902F
:10201000F491E02D0994CF93DF938230910510F471
:1020200082E090E0E091C402F091C50220E030E04F
:10203000C0E0D0E0309711F1408151814817590735
:10204000C0F04817590761F482819381209719F0F5
:102050009B838A832BC09093C5028093C40226C0C1
:102060002115310519F04217530718F49A01BE01E2
:10207000DF01EF010280F381E02DDCCF2115310576
:1020800009F1281B390B2430310590F412968D91FB
:102090009C9113976115710521F0FB019383828355
:1020A00004C09093C5028093C402FD01329644C0DF
:1020B000FD01E20FF31F81939193225031092D937B
:1020C0003C933AC02091C2023091C302232B41F4C9
:1020D00020910201309103013093C3022093C20288
:1020E00020910001309101012115310541F42DB7F6
:1020F0003EB74091040150910501241B350BE0913E
:10210000C202F091C302E217F307A0F42E1B3F0BAB
:102110002817390778F0AC014E5F5F4F2417350759
:1021200048F04E0F5F1F5093C3024093C202819349
:10213000919302C0E0E0F0E0CF01DF91CF910895EC
:102140000F931F93CF93DF93009709F48CC0FC018A
:102150003297138212820091C4021091C5020115B8
:10216000110581F420813181820F931F2091C202D9
:102170003091C3022817390779F5F093C302E09331
:10218000C20271C0D80140E050E0AE17BF0750F462
:1021900012962D913C911397AD012115310509F14E
:1021A000D901F3CF9D01DA013383228360817181EC
:1021B000860F971F8217930769F4EC0128813981F4
:1021C000260F371F2E5F3F4F318320838A819B81EB
:1021D00093838283452B29F4F093C502E093C402D4
:1021E00042C01396FC93EE931297ED0149915991D9
:1021F0009E01240F351FE217F30771F4808191814E
:10220000840F951F029611969C938E9382819381E1
:1022100013969C938E931297E0E0F0E0D80112960B
:102220008D919C911397009719F0F8018C01F6CFCE
:102230008D919C9198012E5F3F4F820F931F2091AB
:10224000C2023091C3022817390769F4309729F484
:102250001092C5021092C40202C01382128210931F
:10226000C3020093C202DF91CF911F910F91089595
:10227000A0E0B0E0EEE3F1E10C944E0EEC0100972B
:1022800021F4CB010E940B10B8C0FC01E60FF71F30
:102290009C0122503109E217F30708F4ACC0D901C0
:1022A0000D911C91119706171707B0F00530110515
:1022B00008F49FC0C80104978617970708F499C0CF
:1022C00002501109061B170B019311936D937C9318
:1022D000CF010E94A0108DC05B01A01AB10A4C0171
:1022E000800E911EA091C402B091C50240E050E062
:1022F000E12CF12C109709F44AC0A815B905D1F5C5
:102300006D907C901197630182E0C80ED11CCA14B5
:10231000DB0480F1A3014A195B096A0182E0C80E5F
:10232000D11C1296BC9012971396AC91B5E0CB16C7
:10233000D10440F0B282A38351834083D9016D93CD
:102340007C930AC00E5F1F4FC301800F911FF901DC
:1023500091838083EB2DFA2FE114F10431F0D70142
:102360001396FC93EE93129744C0F093C502E0934A
:10237000C4023FC08D919C9111974817590708F4EA
:10238000AC017D0112960D90BC91A02DB3CF809130
:10239000C2029091C30288159905E1F446175707C8
:1023A000C8F48091000190910101009741F48DB72C
:1023B0009EB74091040150910501841B950BE817CD
:1023C000F907C8F4F093C302E093C202F9017183E4
:1023D00060830FC0CB010E940B107C01009759F065
:1023E000A801BE010E940712CE010E94A010C701E1
:1023F00004C0CE0102C080E090E0CDB7DEB7EEE0D1
:102400000C946A0E81E090E0F8940C941712FB0192
:10241000DC0102C001900D9241505040D8F7089560
:10242000FB01DC0101900D920020E1F70895F89482
:02243000FFCFDC
:102432000000C6028000000000009002FD01280298
:10244200D702590237024B0200000000B60386038E
:10245200EB035A037E036A035B03202D20000D0A5F
:02246200000078
:107E0000112484B714BE81FFF0D085E080938100F7
:107E100082E08093C00088E18093C10086E0809377
:107E2000C20080E18093C4008EE0C9D0259A86E02C
:107E300020E33CEF91E0309385002093840096BBD3
:107E4000B09BFECF1D9AA8958150A9F7CC24DD24C4
:107E500088248394B5E0AB2EA1E19A2EF3E0BF2EE7
:107E6000A2D0813461F49FD0082FAFD0023811F036
:107E7000013811F484E001C083E08DD089C08234E0
:107E800011F484E103C0853419F485E0A6D080C0E4
:107E9000853579F488D0E82EFF2485D0082F10E0AE
:107EA000102F00270E291F29000F111F8ED06801E7
:107EB0006FC0863521F484E090D080E0DECF843638
:107EC00009F040C070D06FD0082F6DD080E0C81688
:107ED00080E7D80618F4F601B7BEE895C0E0D1E017
:107EE00062D089930C17E1F7F0E0CF16F0E7DF06D8
:107EF00018F0F601B7BEE89568D007B600FCFDCFD4
:107F0000A601A0E0B1E02C9130E011968C91119780
:107F100090E0982F8827822B932B1296FA010C0160
:107F200087BEE89511244E5F5F4FF1E0A038BF0790
:107F300051F7F601A7BEE89507B600FCFDCF97BE46
:107F4000E89526C08437B1F42ED02DD0F82E2BD052
:107F50003CD0F601EF2C8F010F5F1F4F84911BD097
:107F6000EA94F801C1F70894C11CD11CFA94CF0C13
:107F7000D11C0EC0853739F428D08EE10CD085E9AC
:107F80000AD08FE07ACF813511F488E018D01DD067
:107F900080E101D065CF982F8091C00085FFFCCF94
:107FA0009093C60008958091C00087FFFCCF809118
:107FB000C00084FD01C0A8958091C6000895E0E648
:107FC000F0E098E1908380830895EDDF803219F02E
:107FD00088E0F5DFFFCF84E1DECF1F93182FE3DFCA
:107FE0001150E9F7F2DF1F91089580E0E8DFEE27F6
:047FF000FF270994CA
:027FFE00040479
:0400000300007E007B
:00000001FF